{
  "contractName": "Election",
  "abi": [
    {
      "constant": true,
      "inputs": [],
      "name": "candidatesCount",
      "outputs": [
        {
          "name": "",
          "type": "uint256"
        }
      ],
      "payable": false,
      "stateMutability": "view",
      "type": "function"
    },
    {
      "constant": true,
      "inputs": [
        {
          "name": "",
          "type": "uint256"
        }
      ],
      "name": "candidates",
      "outputs": [
        {
          "name": "id",
          "type": "uint256"
        },
        {
          "name": "name",
          "type": "string"
        },
        {
          "name": "voteCount",
          "type": "uint256"
        }
      ],
      "payable": false,
      "stateMutability": "view",
      "type": "function"
    },
    {
      "constant": true,
      "inputs": [
        {
          "name": "",
          "type": "address"
        }
      ],
      "name": "voters",
      "outputs": [
        {
          "name": "",
          "type": "bool"
        }
      ],
      "payable": false,
      "stateMutability": "view",
      "type": "function"
    },
    {
      "inputs": [],
      "payable": false,
      "stateMutability": "nonpayable",
      "type": "constructor"
    },
    {
      "constant": true,
      "inputs": [
        {
          "name": "_candidateId",
          "type": "uint256"
        }
      ],
      "name": "getVoteCount",
      "outputs": [
        {
          "name": "voteCount",
          "type": "uint256"
        }
      ],
      "payable": false,
      "stateMutability": "view",
      "type": "function"
    },
    {
      "constant": false,
      "inputs": [
        {
          "name": "_candidateId",
          "type": "uint256"
        }
      ],
      "name": "vote",
      "outputs": [],
      "payable": false,
      "stateMutability": "nonpayable",
      "type": "function"
    }
  ],
  "bytecode": "0x608060405234801561001057600080fd5b5061005e6040805190810160405280600b81526020017f43616e64696461746520310000000000000000000000000000000000000000008152506100b0640100000000026401000000009004565b6100ab6040805190810160405280600b81526020017f43616e64696461746520320000000000000000000000000000000000000000008152506100b0640100000000026401000000009004565b6101d2565b6002600081548092919060010191905055506060604051908101604052806002548152602001828152602001600081525060016000600254815260200190815260200160002060008201518160000155602082015181600101908051906020019061011c92919061012d565b506040820151816002015590505050565b828054600181600116156101000203166002900490600052602060002090601f016020900481019282601f1061016e57805160ff191683800117855561019c565b8280016001018555821561019c579182015b8281111561019b578251825591602001919060010190610180565b5b5090506101a991906101ad565b5090565b6101cf91905b808211156101cb5760008160009055506001016101b3565b5090565b90565b610449806101e16000396000f30060806040526004361061006d576000357c0100000000000000000000000000000000000000000000000000000000900463ffffffff1680630121b93f146100725780632d35a8a21461009f5780633477ee2e146100ca578063a3ec138d1461017e578063b2c2f2e8146101d9575b600080fd5b34801561007e57600080fd5b5061009d6004803603810190808035906020019092919050505061021a565b005b3480156100ab57600080fd5b506100b4610315565b6040518082815260200191505060405180910390f35b3480156100d657600080fd5b506100f56004803603810190808035906020019092919050505061031b565b6040518084815260200180602001838152602001828103825284818151815260200191508051906020019080838360005b83811015610141578082015181840152602081019050610126565b50505050905090810190601f16801561016e5780820380516001836020036101000a031916815260200191505b5094505050505060405180910390f35b34801561018a57600080fd5b506101bf600480360381019080803573ffffffffffffffffffffffffffffffffffffffff1690602001909291905050506103dd565b604051808215151515815260200191505060405180910390f35b3480156101e557600080fd5b50610204600480360381019080803590602001909291905050506103fd565b6040518082815260200191505060405180910390f35b60003390506000808273ffffffffffffffffffffffffffffffffffffffff1673ffffffffffffffffffffffffffffffffffffffff16815260200190815260200160002060009054906101000a900460ff1615151561027757600080fd5b60008211801561028957506002548211155b151561029457600080fd5b60016000808373ffffffffffffffffffffffffffffffffffffffff1673ffffffffffffffffffffffffffffffffffffffff16815260200190815260200160002060006101000a81548160ff02191690831515021790555060016000838152602001908152602001600020600201600081548092919060010191905055505050565b60025481565b6001602052806000526040600020600091509050806000015490806001018054600181600116156101000203166002900480601f0160208091040260200160405190810160405280929190818152602001828054600181600116156101000203166002900480156103cd5780601f106103a2576101008083540402835291602001916103cd565b820191906000526020600020905b8154815290600101906020018083116103b057829003601f168201915b5050505050908060020154905083565b60006020528060005260406000206000915054906101000a900460ff1681565b6000600160008381526020019081526020016000206002015490509190505600a165627a7a723058204ff2404f22f57c0e5dedc40a42ce768076f689e5d62c515eb3d6889119ac09810029",
  "source": "pragma solidity ^0.4.2;\n\ncontract Election {\n    // Model a Candidate\n    struct Candidate {\n        uint id;\n        string name;\n        uint voteCount;\n    }\n\n    // Store Candidates\n    mapping(address => bool) public voters;\n    // Fetch Candidate\n    mapping(uint => Candidate) public candidates;\n\n    // Store Candidates Count\n    uint public candidatesCount; // default is 0\n\n    // Constructor\n    constructor() public {\n        addCandidate(\"Candidate 1\");\n        addCandidate(\"Candidate 2\");\n    }\n\n    function addCandidate (string _name) private {\n        candidatesCount ++;\n        candidates[candidatesCount] = Candidate(candidatesCount, _name, 0);\n    }\n\n    function getVoteCount (uint _candidateId) public constant returns (uint voteCount) {\n        return candidates[_candidateId].voteCount;\n    }\n\n    function vote (uint _candidateId /* solidity also pass meta data including caller here */) public {\n        address sender = msg.sender;\n        // pre-condition\n        // 1. voter never votes before\n        require(!voters[sender]);\n\n        // 2. voter votes for valid candidate\n        require(_candidateId > 0 && _candidateId <= candidatesCount);\n        // record that voter has voted\n        voters[sender] = true;\n\n        // update candidate vote Count\n        candidates[_candidateId].voteCount ++;\n    }\n}",
  "sourcePath": "/home/karlkim/dapp/election/contracts/Election.sol",
  "compiler": {
    "name": "solc",
    "version": "0.4.23+commit.124ca40d.Emscripten.clang"
  },
  "schemaVersion": "2.0.0",
  "updatedAt": "2018-04-29T22:18:08.412Z"
}